:020000040800F2
:10000000E806002045010008392B00083B2B0008BA
:100010003F2B0008432B0008472B0008000000007E
:100020000000000000000000000000004B2B000852
:100030004D2B0008000000004F2B0008512B00083A
:100040005F0100085F0100085F0100085F01000810
:100050005F0100085F0100085F0100085F01000800
:100060005F0100085F0100085F0100085F010008F0
:100070005F0100085F0100085F0100085F010008E0
:100080005F0100085F0100085F0100085F010008D0
:100090005F0100085F0100085F0100085F010008C0
:1000A0005F0100085F0100085F0100085F010008B0
:1000B000392E00085F0100085F0100085F01000899
:1000C0005F0100085F0100085F0100085F01000890
:1000D0005F010008912B0008C52C00085F01000893
:1000E0005F0100085F0100085F0100085F01000870
:1000F0005F0100085F0100085F0100085F01000860
:100100005F0100085F0100085F0100085F0100084F
:100110005F0100085F0100085F0100085F0100083F
:100120005F0100085F0100085F0100085F0100082F
:10013000DFF80CD003F00CFE00480047A5280008AB
:10014000E80600200648804706480047FEE7FEE72D
:10015000FEE7FEE7FEE7FEE7FEE7FEE7FEE7FEE777
:1001600047020008310100080CB500200190009002
:100170006C48006840F480306A49086000BF6948F4
:10018000006800F4003000900198401C0190009835
:1001900018B90198B0F5A06FF1D16248006800F479
:1001A000003010B10120009001E000200090009884
:1001B000012843D15C48006840F010005A490860AB
:1001C0000846006820F0030008600846006840F018
:1001D0000200086053484068524948600846406839
:1001E00048600846406840F48060486008464068BF
:1001F00020F47C1048600846406840F4E8104860ED
:100200000846006840F08070086000BF45480068FC
:1002100000F000700028F9D04248406820F0030048
:10022000404948600846406840F00200486000BF0E
:100230003C48406800F00C000828F9D10CBD10B50E
:10024000FFF792FF10BD10B53648006840F001007E
:1002500034490860084640683449084031494860DC
:1002600008460068324908402E4908600846006880
:1002700020F4802008600846406820F4FE004860B2
:100280004FF41F008860FFF7DAFF4FF00060294944
:10029000086010BD10B5002100200022214B5B68D2
:1002A00003F00C0121B1042906D0082928D107E068
:1002B000214B224C236027E01F4B204C236023E07E
:1002C000184B5B6803F47010164B5B6803F48032C4
:1002D000022303EB904022B9194B4343174C236090
:1002E0000DE0104B5B6803F4003323B1144B434320
:1002F000124C236003E0104B4343104C236003E097
:100300000D4B0E4C236000BF00BF064B5B68C3F370
:1003100003130C4CE15C094B1B68CB40074C23607A
:1003200010BD000000100240002002400000FFF855
:10033000FFFFF6FE08ED00E000127A00000000204A
:1003400000093D000400002031490143314A116099
:10035000704770B5002100230F22C47804B32D4CE0
:10036000246804F4E064C4F5E064210AC1F10403E4
:10037000CA40447804FA03F1847814402143090107
:10038000254C0678A155047804F01F050124AC40E3
:1003900005786D11AD0005F1E025C5F8004109E0D3
:1003A000047804F01F050124AC401C4D067876113A
:1003B00045F8264070BD1A4A0A400243154B1B1FE0
:1003C0001A60704739B1134A121D12680243114B6B
:1003D0001B1D1A6006E00F4A121D126882430D4B66
:1003E0001B1D1A607047042808D14FF0E0210969ED
:1003F00041F004014FF0E022116107E04FF0E021ED
:10040000096921F004014FF0E022116170470000FA
:100410000000FA050CED00E000E400E080E100E0FF
:1004200080FFFF1F10B50446FA48844208D101211D
:10043000401500F045FF0021601500F041FF17E076
:10044000F548844208D10121001500F039FF002150
:10045000201500F035FF0BE0F048844208D101215F
:10046000C80300F02DFF00214FF4004000F028FFEA
:1004700010BD30B50246002000235068E84C2040F3
:100480000D790C6844EA0524204350609068E54CDF
:100490002040D1E902542C434D7944EA45042043DD
:1004A0009060D06A20F470000C7C641EE4B2234398
:1004B00040EA0350D06230BD0021016001714171FA
:1004C0008160C16001210174704721B1826842F0EE
:1004D0000102826003E0826822F0010282607047BC
:1004E00021B1826842F48072826003E0826822F463
:1004F00080728260704710B50023CBB21AB1446895
:100500001C43446002E044689C43446010BD816821
:1005100041F0080181607047014600208A6802F0BE
:1005200008020AB1012000E000207047816841F014
:10053000040181607047014600208A6802F00402CD
:100540000AB1012000E00020704721B1826842F426
:10055000A002826003E0826822F4A00282607047F9
:10056000014600208A6802F480020AB1012000E0FE
:100570000020704710B50A4600210023416821F48D
:100580006041531E41EA4331416010BD21B14268D0
:1005900042F40062426003E0426822F4006242607A
:1005A0007047F0B504460D4600200021092D11DDED
:1005B000E068A5F10A0606EB4607072606FA07F1EA
:1005C0008843A5F10A0606EB460603FA06F108433E
:1005D000E0600CE0206905EB4507072606FA07F105
:1005E000884305EB450603FA06F108432061072A14
:1005F0000FDA606B561E06EB86071F2606FA07F118
:100600008843561E06EB860605FA06F1084360632A
:1006100022E00D2A0FDA206BD61F06EB86071F2675
:1006200006FA07F18843D61F06EB860605FA06F19F
:100630000843206310E0E06AA2F10D0606EB86078E
:100640001F2606FA07F18843A2F10D0606EB86067F
:1006500005FA06F10843E062F0BD21B1826842F478
:100660008012826003E0826822F480128260704708
:100670000146C86C80B2704766484C3000687047CD
:1006800021B1426842F48062426003E0426822F491
:1006900080624260704721B1426842F480524260F9
:1006A00003E0426822F48052426070470A4600210B
:1006B000816821F4E04111438160704721B1826873
:1006C00042F40042826003E0826822F400428260C9
:1006D000704721B1826842F40212826003E08268AE
:1006E00022F4021282607047014600208A6802F4F8
:1006F00000120AB1012000E000207047F0B5044666
:100700001546002000220026092911DDE068A1F12C
:100710000A0707EB470C072707FA0CF29043A1F1F1
:100720000A0707EB470703FA07F21043E0600CE003
:10073000206901EB410C072707FA0CF2904301EB0B
:10074000410703FA07F210432061A06BC0F3015682
:10075000EF1C06F1010CA7EB0C0707EB870C1F271A
:1007600007FA0CF29043EF1C06F1010CA7EB0C0703
:1007700007EB870701FA07F21043A063F0BD10B53D
:100780000A4600210023816B21F44011531E41EAE7
:100790000351816310BD08B5002300930090009BB6
:1007A0000B440093009B1A6008BD08B50246002068
:1007B0000090009201F12800009B184400900098DE
:1007C000006880B208BD0A4600214168164B1940F6
:1007D0001143416070474162826270470A460021BE
:1007E000416821F01F0111434160704740B1094940
:1007F0000831096841F40001064A0832116007E037
:1008000004490831096821F40001024A08321160E4
:10081000704700000024014000280140003C0140D6
:10082000FFFEF0FFFDF7F1FFFFFD3FFF0246002056
:1008300013680B400BB1012000E000207047CA4351
:100840000260704770B502460020002300240B129E
:100850005568CEB205EA060415681D4015B10CB105
:10086000012000E0002070BD00220A12D343036083
:100870007047000010B50121480700F02EFD00214F
:100880004FF0005000F029FD10BD30B500220023CC
:100890005A4C226840F6FE748440A243D1E90045D8
:1008A0002C438D682C43CD6844EA050303FA00F419
:1008B0002243524C226030BD0021016041608160C2
:1008C000C160704739B14D4A1268012383401A4311
:1008D0004A4B1A6006E0494A1268012383409A4352
:1008E000464B1A60704741B1444A12684FF4805336
:1008F00083401A43414B1A6007E0404A12684FF4A4
:10090000805383409A433D4B1A60704710B551B1F4
:100910003A4A121D126804090123A3401A43374BB7
:100920001B1D1A6009E0354A121D126804090123D3
:10093000A3409A43314B1B1D1A6010BD40B12F4993
:10094000091D096841F003012C4A121D116007E0DE
:100950002A49091D096821F00301284A121D116066
:10096000704710B53AB1254B1B6801FA00F42343D8
:10097000224C236006E0214B1B6801FA00F4A343DC
:100980001E4C236010BD08B5002200921B4A009245
:1009900000F10802009B1A440092009A116008BD01
:1009A00008B500220092154A009200F11402009B43
:1009B0001A440092009A116008BD30B5002400234B
:1009C000082802D142EA012401E042EA01440B4B2B
:1009D00000F120052B441C6030BD08B50146002005
:1009E0000090064800902C2000EB9100009A1044E3
:1009F00000900098006880B208BD000000740040BC
:100A000001684FF6FE7211400160002101604160F3
:100A10008160C1608D49884208D18C490839496894
:100A200041F00F01894A083A51608AE08749143140
:100A3000884208D185490839496841F0F001834A64
:100A4000083A51607DE081492831884208D17F49C8
:100A50000839496841F470617C4A083A516070E095
:100A60007A493C31884208D178490839496841F4CB
:100A70007041764A083A516063E0744950318842C7
:100A800008D172490839496841F470216F4A083A1F
:100A9000516056E06D496431884208D16B4908398C
:100AA000496841F47001694A083A516049E0674970
:100AB0007831884208D165490839496841F0706148
:100AC000624A083A51603CE06149884206D1011F00
:100AD000096841F00F01021F116032E05C491431D6
:100AE000884208D15A49091F096841F0F001584A63
:100AF000121F116025E056492831884208D1544917
:100B0000091F096841F47061514A121F116018E011
:100B10004F493C31884208D14D49091F096841F4C9
:100B200070414B4A121F11600BE049495031884215
:100B300007D14749091F096841F47021444A121F2F
:100B40001160704710B50022026847F6F0739A43AF
:100B50000C6A8B6823430C6923434C6923438C69DB
:100B60002343CC6923434C6A23438C6A23431A43AF
:100B70000260CB6843600B6883604B68C36010BD44
:100B80000021016041608160C1600161416181615A
:100B9000C161016241628162704721B1026842F025
:100BA0000102026004E002684FF6FE731A40026020
:100BB00070471AB103680B43036002E003688B437C
:100BC00003607047416070470146486880B27047D3
:100BD00001460020002201F080531BB11C4B083B52
:100BE0001A6802E0194B083B1A6802EA01030BB1CC
:100BF000012000E00020704700F0805119B1144935
:100C0000091F086002E01149083948607047014631
:100C10000020002201F080531BB10D4B083B1A68E5
:100C200002E00A4B083B1A6802EA01030BB10120FB
:100C300000E00020704700F0805119B10449091FFD
:100C4000086002E001490839486070470800024026
:100C50000804024010B50446CC48844208D1012162
:100C6000042000F02DFB0021042000F029FB46E0C9
:100C7000C748844208D10121082000F021FB00214F
:100C8000082000F01DFB3AE0C248844208D101214F
:100C9000102000F015FB0021102000F011FB2EE0C9
:100CA000BD48844208D10121202000F009FB002129
:100CB000202000F005FB22E0B848844208D1012141
:100CC000402000F0FDFA0021402000F0F9FA16E083
:100CD000B348844208D10121802000F0F1FA0021BC
:100CE000802000F0EDFA0AE0AE48844207D10121ED
:100CF000801500F0E5FA0021A01500F0E1FA10BD22
:100D000010B50121084600F0DBFA0021012000F0B7
:100D1000D7FA10BD2DE9F04102460025002600203B
:100D200000230024002791F803C00CF00F0591F870
:100D300003C00CF0100CBCF1000F03D091F802C0FE
:100D40004CEA050591F800C0BCF1000F31D01468E1
:100D500000202BE04FF0010C0CFA00F3B1F800C0BA
:100D60000CEA03069E4220D183004FF00F0C0CFAD0
:100D700003F7BC4305FA03FC4CEA040491F803C0F2
:100D8000BCF1280F06D14FF0010C0CFA00FCC2F8A0
:100D900014C00AE091F803C0BCF1480F05D14FF030
:100DA000010C0CFA00FCC2F810C0401C0828D1D37A
:100DB0001460B1F800C0BCF1FF0F34DD54680020AE
:100DC0002EE000F1080C4FF0010808FA0CF3B1F81E
:100DD00000C00CEA03069E4221D183004FF00F0CA5
:100DE0000CFA03F7BC4305FA03FC4CEA040491F83F
:100DF00003C0BCF1280F05D100F1080C08FA0CF86B
:100E0000C2F8148091F803C0BCF1480F07D100F17B
:100E1000080C4FF0010808FA0CF8C2F81080401CCA
:100E20000828CED35460BDE8F0814FF6FF710180F1
:100E3000022181700421C17070470246002093682E
:100E40000B400BB1012000E000207047014688688C
:100E500080B2704702460020D3680B400BB10120DE
:100E600000E0002070470146C86880B27047016109
:100E70007047416170470AB1016100E0416170470C
:100E8000C16070474FF480320A43826181618261A0
:100E900082698269704702460020434B18684FF60A
:100EA0008073184040EA021008433F4B18607047B7
:100EB0003E49C8617047F0B50A460023002400216E
:100EC000002500F00046B6F1004F02D1364EF16920
:100ED00001E0354E7168C0F3034583B200F440165B
:100EE000B6F5401F08D121F070612F4E766826F0CC
:100EF00070662D4F7E6012E000F48016B6F5801FFC
:100F000006D1032606FA05F4A14341F0706106E01C
:100F1000460D360103FA06F6B14341F0706122B185
:100F2000460D360103FA06F6314300F00046B6F1ED
:100F3000004F02D11C4EF16101E01B4E7160F0BD0B
:100F400030B500228B071C0F0F2303FA04F2164B57
:100F500008338C1053F824309343134C08348D100D
:100F600044F8253023468C1053F824308C07240F86
:100F700000FA04F423430C4C08348D1044F8253057
:100F800030BD0A49DC3108607047000000080140AC
:100F9000000C014000100140001401400018014005
:100FA000001C0140002001400000014000002042E0
:100FB000DF48006840F00100DD49086008464068ED
:100FC000DC490840DA49486008460068DA490840C8
:100FD000D74908600846006820F480200860084669
:100FE000406820F4FE0048604FF41F00886070479E
:100FF000CF49096821F48031CD4A11601146096852
:1010000021F480211160B0F5803F03D0B0F5802F2E
:101010000ED106E0C649096841F48031C44A116026
:1010200007E0C349096841F4A021C14A116000E00A
:1010300000BF00BF704710B501460022002300200A
:101040004A11012A02D1BA4C236806E0022A02D1D1
:10105000B74C236A01E0B64C636A01F01F02012419
:1010600094401C400CB1012000E0002010BD38B5B8
:10107000002000900024002500BF3120FFF7DBFF97
:1010800005460098401C00900098B0F5A06F01D074
:10109000002DF2D03120FFF7CEFF08B1012400E08F
:1010A0000024204638BD01460020A14A106820F0E7
:1010B000F80040EAC10010607047A049086070471E
:1010C000024600209A4B586820F47C1042EA010343
:1010D0001843974B58607047984908667047014617
:1010E0000020934A506820F0030008435060704786
:1010F0008F48406800F00C007047014600208C4A81
:10110000506820F0F000084350607047014600200E
:10111000874A506820F4E0600843506070470146F9
:101120000020834A506820F4605040EAC1005060BB
:10113000704729B17E4A527A02437D4B5A7204E0CD
:101140007B4A527A82437A4B5A7270477B49D83134
:101150000860704701460020754A506820F44040FE
:101160000843506070470021714A20321170704A64
:1011700082F82010012802D004280AD104E00121BD
:101180006B4A2032117005E00521694A2032117046
:1011900000E000BF00BF70476949086070476449BC
:1011A000096A0143624A116270476549443908601F
:1011B000704730B500210022002400235C4D6D688B
:1011C00005F00C0121B1042905D0082923D105E03F
:1011D0005C4D056022E05B4D05601FE0544D6D687D
:1011E00005F47012524D6D6805F48034022505EB4C
:1011F00092421CB9544D554305600BE04C4D6D684F
:1012000005F400351DB1504D5543056002E04D4DCC
:101210005543056002E04B4D056000BF00BF444DE3
:101220006D6805F0F0010909484D6B5C0568DD400B
:1012300045603F4D6D6805F4E061090A434D6B5C04
:101240004568DD4085603A4D6D6805F46051C90A16
:101250003E4D6B5C4568DD40C560354D6D6805F4FD
:101260004041890B3A4D6B5CC568B5FBF3F50561F0
:1012700030BD29B12E4A526902432D4B5A6104E018
:101280002B4A526982432A4B5A61704729B1284A36
:1012900092690243264B9A6104E0254A926982438F
:1012A000234B9A61704729B1214AD2690243204BEE
:1012B000DA6104E01E4AD26982431D4BDA6170474D
:1012C00029B11B4AD2680243194BDA6004E0184A7C
:1012D000D2688243164BDA60704729B1144A12690A
:1012E0000243134B1A6104E0114A12698243104B06
:1012F0001A61704712494039086070470F49C86445
:1013000070470B49C87170470948406A40F08070C7
:1013100007494862704701460020054A92680A4022
:101320000AB1012000E0002070470149887270472F
:10133000001002400000FFF8FFFFF6FE00004242EE
:101340008004424200127A0000093D00140000208F
:101350002400002010B50446BE48844208D1012173
:101360008014FFF7ADFF0021A014FFF7A9FF16E0DE
:10137000B948844208D101210014FFF7AEFF0021D3
:101380002014FFF7AAFF0AE0B448844207D10121E4
:10139000C013FFF7A2FF0021E013FFF79EFF10BD6F
:1013A00010B50022028802F441520B884C88234376
:1013B0008C882343CC8823430C8923434C892343C3
:1013C0008C892343CC8923431A430280838B4FF2B9
:1013D000FF74234083830B8A038210BD2DE9F04FF5
:1013E00085B005460C464FF0000902274FF0000873
:1013F0004FF0010B0026B246A88B4FF24001084087
:10140000A88302202884B5F81C90A068022801D186
:1014100000BF38E0A08810B94FF0010B01E04FF099
:10142000020B8D48854200D100E000BF6846FFF7FF
:10143000C0FEDDF800A0E088B0F5007F0AD14FEAD9
:101440001A2000EB80004000A168B0FBF1F0401DC5
:1014500086B20BE04FEA4B10BAFBF0F000EB8000D5
:101460004000A168B0FBF1F0401D86B20A20B6FB37
:10147000F0F606F00108A6EB0800C0F34F074FF6A0
:10148000FF7000EA0828022F01DBFF2F02DD022790
:101490004FF00008E08840EA080038432884A0881C
:1014A000A1890843618808432188084340F400600B
:1014B00040EA0909A5F81C9005B0BDE8F08F0021AD
:1014C000018041808180C180018141818181C18110
:1014D0000721018270470021018041808180C18005
:1014E0000221816000218181704721B1028842F090
:1014F0004002028004E002884FF6BF731A40028067
:10150000704721B1828B42F48062828304E0828B37
:101510004FF6FF331A408283704730B50024002312
:101520000C110125A540ABB21AB185881D438580F9
:1015300002E085889D43858030BD1AB183880B43C6
:10154000838002E083888B4383807047818170476A
:101550000146888970474FF6FF62914204D00288A5
:1015600042F48072028004E002884FF6FF631A4062
:101570000280704721B1828842F00402828004E038
:1015800082884FF6FB731A408280704702884FF2C0
:10159000FF731A40028002880A4302807047018864
:1015A00041F480510180704721B1028842F4005219
:1015B000028004E002884DF6FF731A4002807047F3
:1015C00002460020012901D0108B00E0908A70476C
:1015D0000146088A7047B1F5804F04D1028842F471
:1015E0008042028004E002884BF6FF731A400280BA
:1015F00070470246002013890B400BB1012000E028
:1016000000207047CA4302817047F0B502460020AF
:1016100000240023002501F00F070126BE40B4B2CC
:101620000B1101269E40B3B2968806EA030516897F
:10163000264016B10DB1012000E00020F0BD10B52C
:10164000002201F00F040123A3409AB2D343038187
:1016500010BD00000030014000380040003C004058
:1016600010B50446FE48844208D10121C014FFF79A
:1016700027FE0021E014FFF723FEC4E0B4F1804F01
:1016800008D101210846FFF728FE00210120FFF7BD
:1016900024FEB8E0F348844208D101210220FFF77C
:1016A0001CFE00210220FFF718FEACE0EE48844249
:1016B00008D101210420FFF710FE00210420FFF7CC
:1016C0000CFEA0E0E948844208D101210820FFF780
:1016D00004FE00210820FFF700FE94E0E448844265
:1016E00008D101211020FFF7F8FD00211020FFF79D
:1016F000F4FD88E0DF48844208D101212020FFF773
:10170000ECFD00212020FFF7E8FD7CE0DA48844270
:1017100008D101214014FFF7D3FD00216014FFF729
:10172000CFFD70E0D548844209D10121C804FFF7FC
:10173000C7FD00214FF40020FFF7C2FD63E0D04851
:10174000844209D101210805FFF7BAFD00214FF4B9
:101750008010FFF7B5FD56E0CA48844209D1012147
:101760004805FFF7ADFD00214FF40010FFF7A8FD7D
:1017700049E0C548844208D101214020FFF7ADFD72
:1017800000214020FFF7A9FD3DE0C048844208D178
:1017900001218020FFF7A1FD00218020FFF79DFDA2
:1017A00031E0BB48844208D101218015FFF795FD47
:1017B0000021A015FFF791FD25E0B648844209D12C
:1017C00001210804FFF77CFD00214FF48030FFF772
:1017D00077FD18E0B048844209D101214804FFF7A1
:1017E0006FFD00214FF40030FFF76AFD0BE0AB48BE
:1017F000844208D101218804FFF762FD00214FF4E3
:101800008020FFF75DFD10BD00220288944B9842B6
:101810000ED0994B98420BD0B0F1804F08D0914B2D
:10182000984205D0904B984202D0904B984204D1F8
:101830004FF68F731A404B881A438D4B984207D04E
:101840008C4B984204D04FF6FF431A40CB881A4382
:1018500002808B8883850B880385814B98420BD04F
:10186000854B984208D08B4B984205D08A4B9842C2
:1018700002D08A4B984201D10B7A038601238382DE
:10188000704770B5002400220023058C4FF6FE76C9
:1018900035400584028C8388048B4FF68F752C406D
:1018A000B51E2C400D882C43751E2A400D892A43F5
:1018B0004D882A436A4DA8420BD06F4DA84208D0EC
:1018C000744DA84205D0744DA84202D0734DA84271
:1018D00013D14FF6F7752A404D892A434FF6FB7511
:1018E0002A408D882A434FF6FF652B404FF6FF555F
:1018F0002B408D892B43CD892B4383800483CD8856
:101900008586028470BD70B5002400220023058CFA
:101910004FF6EF7635400584028C8388048B48F6B9
:10192000FF752C404FF6FF452C400D884FF6FF7693
:1019300006EA05252C434FF6DF752A400D8906EA95
:1019400005152A434D8806EA05152A43444DA84249
:1019500002D0494DA8421DD14FF67F752A404D89CE
:101960004FF6FF7606EA05152A434FF6BF752A4063
:101970008D8806EA05152A434FF6FF352B404FF2B6
:10198000FF752B408D8906EA85052B43CD8906EA34
:1019900085052B4383800483CD880587028470BD31
:1019A00070B5002400220023058C4FF6FF663540F9
:1019B0000584028C8388848B4FF68F752C404FF6FC
:1019C000FC752C400D882C434FF6FF552A400D899D
:1019D0004FF6FF7606EA05252A434D8806EA0525D7
:1019E0002A431F4DA84202D0234DA8421DD14FF2D9
:1019F000FF752A404D894FF6FF7606EA05252A43F2
:101A00004FF6FF352A408D8806EA05252A434EF613
:101A1000FF752B404DF6FF752B408D8906EA0515A5
:101A20002B43CD8906EA05152B4383808483CD881B
:101A30008587028470BD70B5002200230024058CC8
:101A40004EF6FF7635400584038C8488828B48F6F9
:101A5000FF752A404FF6FF452A400D8820E0000020
:101A6000002C01400004004000080040000C004031
:101A7000001000400014004000340140004C0140C0
:101A8000005001400054014000180040001C00407C
:101A90000020004000400140004401400048014057
:101AA0004FF6FF7606EA05252A434DF6FF752B40D3
:101AB0000D8906EA05352B434D8806EA05352B438B
:101AC000FA4DA84202D0FA4DA84208D14BF6FF7554
:101AD0002C408D894FF6FF7606EA85152C438480CD
:101AE0008283CD88A0F84050038470BD828B4FF272
:101AF000FF331A408283828B4FF6FF7303EA012380
:101B00001A4382837047F0B50C4615460022002127
:101B10000026078C4EF6FF7C07EA0C070784828BB1
:101B2000018C4FF6FF7707EA043640F6FF473A404C
:101B30004FF6FF7707EA05273A434FF6FF7707EAA4
:101B400003373A43D94FB8420ED0D94FB8420BD0E1
:101B5000B0F1804F08D0D74FB84205D0D64FB84229
:101B600002D0D64FB84206D14DF6FF77394046F441
:101B70008057394305E047F6FF57394044F4805712
:101B8000394382830184F0BD828B4FF6F3731A4090
:101B90008283828B0A4382837047F0B50C461546D8
:101BA000002200210026078C4FF6FF6C07EA0C0785
:101BB0000784828B018C4FF6FF7707EA04264FF6E5
:101BC0000C773A404FF6FF7707EA03172F433A4363
:101BD000B64FB8420ED0B64FB8420BD0B0F1804FDE
:101BE00008D0B44FB84205D0B34FB84202D0B34F7B
:101BF000B84206D14FF6FF57394046F48077394353
:101C000005E04FF2FF57394044F48077394382832F
:101C10000184F0BD028B4FF2FF331A400283028B26
:101C20004FF6FF7303EA01231A4302837047F0B5AE
:101C30000C461546002200210026078C4FF6EF7C4B
:101C400007EA0C070784028B018C4FF6FF7707EA3F
:101C5000041640F6FF473A404FF6FF7707EA03378E
:101C60003A434FF6FF7707EA05273A438F4FB842CA
:101C70000ED08F4FB8420BD0B0F1804F08D08D4FAF
:101C8000B84205D08C4FB84202D08C4FB84206D132
:101C90004FF6DF77394046F01007394305E04FF63D
:101CA0005F77394044F01007394302830184F0BD67
:101CB000028B4FF6F3731A400283028B0A430283AE
:101CC0007047F0B50C46154600220021068C4FF6F1
:101CD000FE773E400684028B018C4FF60C76324034
:101CE0007E1C06EA03162E433243704EB0420ED0DD
:101CF0006F4EB0420BD0B0F1804F08D06D4EB04265
:101D000005D06D4EB04202D06C4EB04206D14FF6B7
:101D1000FD76314044F00106314305E04FF6F5769B
:101D2000314044F00106314302830184F0BD70B5B7
:101D300005460C465D4885420ED05D4885420BD075
:101D4000B5F1804F08D05B48854205D05A4885429E
:101D500002D05A48854200D100E000BF208850B927
:101D60002389A28861882846FFF7ABFFE1882846CF
:101D7000FFF79EFF25E0208804280AD12389A28846
:101D800061882846FFF753FFE1882846FFF742FFA6
:101D900017E0208808280AD12389A288618828466C
:101DA000FFF7FBFEE1882846FFF7EEFE09E02389F6
:101DB000A28861882846FFF7A6FEE1882846FFF73B
:101DC00095FE70BD2DE9F04105460C460026012721
:101DD000608808B9022600E00026A088012801D109
:101DE000022700E001272088A0B92389A288618802
:101DF0002846FFF766FFE1882846FFF759FF238949
:101E00003A4631462846FFF712FFE1882846FFF799
:101E100001FF13E02389A28861882846FFF707FFA6
:101E2000E1882846FFF7F6FE23893A4631462846E0
:101E3000FFF747FFE1882846FFF73AFFBDE8F0814A
:101E40000A884B881A438B881A43CB881A430B891C
:101E50001A434B891A438B891A43A0F844207047D0
:101E60004FF6FF71818000210180C18041800172A5
:101E700070470021018041808180C18001814181C2
:101E80008181C181704700210180418001218180D1
:101E90000021C18001817047002101804180818043
:101EA000C18001814181818170470000002C014087
:101EB000003401400004004000080040000C0040D5
:101EC00021B1028842F00102028004E002884FF64C
:101ED000FE731A400280704731B1B0F8442042F4DA
:101EE0000042A0F8442005E0B0F84420C2F30E02FE
:101EF000A0F8442070471AB183890B43838102E024
:101F000083898B43838170478182704741EA020352
:101F1000A0F8483070471AB183890B43838102E0EF
:101F200083898B438381704701894FF6F872114092
:101F3000018170470A46002101894FF68F731940CD
:101F400011430181704730B504460D4629462046AD
:101F5000FFF7F0FF208940F00700208130BD2DE918
:101F6000F04104460D4616461F46602D06D13B46FD
:101F7000012231462046FFF75AFE05E03B4601228A
:101F800031462046FFF79DFE29462046FFF7D2FF47
:101F9000208940F007002081BDE8F08130B50C4673
:101FA00000210189C9B24FF6FF7505EA03251543E3
:101FB00025432943018130BD2DE9F04105460E46F8
:101FC00017469846002443463A4631462846FFF7CE
:101FD000E5FF2C894FF6F870044044F007044FF6F3
:101FE0008F70044044F070042C81BDE8F081F0B59E
:101FF00004460D4616461F463B46324629462046B5
:10200000FFF7CCFF208940F480402081F0BD01859E
:10201000828270470A46002101884FF68F7319406B
:10202000114301807047F0B50C4615461E4600214D
:10203000002200230189028B038C4FF6F877394088
:1020400021434FF6FC473A4040F201173A434FF61E
:10205000DD773B404FF6FF7707EA06172F433B43F8
:10206000018102830384F0BD0A460021018B4FF6F3
:102070008F7319401143018370470A460021018B79
:1020800048F6FF7319404FF6FF7303EA0223194322
:10209000018370470A460021818B4FF68F731940E8
:1020A0001143818370470A460021818B48F6FF73F4
:1020B00019404FF6FF7303EA0223194381837047E7
:1020C00021B1028842F08002028004E002884FF6CB
:1020D0007F731A400280704721B1828842F0040267
:1020E000828004E082884FF6FB731A40828070473A
:1020F00021B1828842F00802828004E082884FF693
:10210000F7731A408280704721B1828842F0010241
:10211000828004E082884FF6FE731A408280704706
:102120000A460021018B4FF6F773194011430183D2
:1021300070470A460021018B4FF2FF7319404FF69A
:10214000FF7303EA02231943018370470A46002103
:10215000818B4FF6F77319401143818370470A460C
:102160000021818B4FF2FF7319404FF6FF7303EA92
:1021700002231943818370470A460021018B4FF6E1
:10218000FB7319401143018370470A460021018BFC
:102190004FF6FF3319404FF6FF7303EA022319434A
:1021A000018370470A460021818B4FF6FB7319406B
:1021B0001143818370470A460021818B4FF6FF331C
:1021C00019404FF6FF7303EA0223194381837047D6
:1021D0000A460021018B4FF67F731940114301839A
:1021E00070470A460021018BC1F30E014FF6FF73C1
:1021F00003EA02231943018370470A460021818BB9
:102200004FF67F7319401143818370470A460021BE
:10221000818BC1F30E014FF6FF7303EA02231943CA
:10222000818370470A460021018C4FF6FD731940E7
:102230001143018470470A460021018C4FF6F77361
:1022400019401143018470470A460021018C4FF662
:10225000DF7319404FF6FF7303EA02131943018439
:1022600070470A460021018C4FF67F7319404FF6E4
:10227000FF7303EA02131943018470470A460021E1
:10228000018C4FF6FF5319404FF6FF7303EA022308
:102290001943018470470A460021018C4FF2FF73F5
:1022A00019404FF6FF7303EA022319430184704774
:1022B0000A460021018C4DF6FF7319404FF6FF735B
:1022C00003EA023319430184704730B50023012427
:1022D0008C40A3B2048C9C430484048C02FA01F564
:1022E000ADB22C43048430BD30B5002304248C40AF
:1022F000A3B2048C9C430484048C02FA01F5ADB2B1
:102300002C43048430BD70B50346002000241846D9
:10231000183001258D40ACB21D8CA5431D8409B138
:10232000082909D100EB6100056825F070050560FA
:102330000568154305600EE00D1FC5F34E052844E2
:10234000056825F4E045056005684FF6FF7606EA66
:1023500002263543056070BD21B1028842F00202B9
:10236000028004E002884FF6FD731A400280704735
:1023700021B1028842F00402028004E002884FF694
:10238000FB731A400280704721B1828842F08002BC
:10239000828004E082884FF67F731A408280704703
:1023A00002884FF6F7731A40028002880A430280BF
:1023B000704782884FF68F731A40828082880A4362
:1023C0008280704702894FF6F8731A4002810289B1
:1023D0000A430281704702894FF67F731A400281D7
:1023E00002890A4302817047818470478185704762
:1023F000818670470187704781877047A0F8401039
:10240000704702884FF6FF431A40028002880A4351
:10241000028070470146888E70470146088F7047DA
:102420000146888F70470146B1F840007047014669
:10243000888C70470146088D704702460020138A39
:102440000B400BB1012000E000207047CA4302821C
:10245000704730B50246002000230024158A05EAA3
:102460000103958905EA010413B10CB1012000E0D4
:10247000002030BDCA4302827047000010B50446F8
:10248000FB48844209D101218803FEF719FF00218E
:102490004FF48040FEF714FF32E0F648844209D141
:1024A00001214804FEF719FF00214FF40030FEF728
:1024B00014FF25E0F048844209D101218804FEF789
:1024C0000CFF00214FF48020FEF707FF18E0EB48D7
:1024D000844209D10121C804FEF7FFFE00214FF418
:1024E0000020FEF7FAFE0BE0E548844208D1012106
:1024F0000805FEF7F2FE00214FF48010FEF7EDFE16
:1025000010BD2DE9F04786B005460E460024A246D0
:1025100000BFA1460027B08900B100BF2F462C8A1A
:102520004CF6FF700440F08804432C82AC894EF6D0
:10253000F3100440B088318908437189084304438B
:10254000AC81AC8A4FF6FF400440B0890443AC82B2
:1025500001A8FEF72EFEC648874202D1DDF810A082
:1025600001E0DDF80CA0A88900F4004040B10AEBBE
:10257000CA0000EB0A1031684900B0FBF1F807E02F
:102580000AEBCA0000EB0A1031688900B0FBF1F8D1
:102590006420B8FBF0F004012009642101FB1089DC
:1025A000A88900F4004040B1322000EBC900B0FB24
:1025B000F1F000F00700044308E0322000EB0910BE
:1025C0006421B0FBF1F000F00F0004432C8106B051
:1025D000BDE8F0874FF41651016000218180C18071
:1025E00001810C21418100218181704710B5024693
:1025F0000020108A4FF2FF0318400B884C882343B9
:102600008C882343CC8823431843108210BD0021BB
:10261000018041808180C180704721B1828942F46C
:102620000052828104E082894DF6FF731A40828154
:102630007047F0B50346002400260025002040F630
:102640006A17B94200D100BF1846C1F3421401F025
:102650001F06012707FA06F5012C01D10C3004E012
:10266000022C01D1103000E014301AB107682F435A
:10267000076002E00768AF430760F0BD1AB1838AC4
:102680000B43838202E0838A8B4383827047028AF2
:102690004FF6F0731A400282028A0A4302827047A0
:1026A00082894FF2FF731A40828182890A438281B4
:1026B000704721B1828942F00202828104E082895E
:1026C0004FF6FD731A4082817047028A4FF6DF731E
:1026D0001A400282028A0A430282704721B1028AAA
:1026E00042F48042028204E0028A4BF6FF731A40F1
:1026F00002827047C1F308028280704701468888D1
:10270000C0F308007047818941F001018181704761
:10271000028BD2B20283028B42EA0122028370470B
:10272000028B02F47F420283028B0A4302837047CA
:1027300021B1828A42F02002828204E0828A4FF62E
:10274000DF731A408282704721B1828A42F0100200
:10275000828204E0828A4FF6EF731A4082827047C9
:1027600021B1828A42F00802828204E0828A4FF616
:10277000F7731A408282704721B1828942F4004285
:10278000828103E08289C2F30E028281704721B107
:10279000828A42F40062828204E0828A4FF2FF73EE
:1027A0001A4082827047828A4FF6FB731A408282F7
:1027B000828A0A438282704721B1828A42F00202F1
:1027C000828204E0828A4FF6FD731A40828270474B
:1027D00002460020B1F5007F00D100BF13880B40F6
:1027E0000BB1012000E00020704701F40072B2F547
:1027F000007F00D100BFCA430280704770B5024617
:10280000002400230025002040F66A16B14200D1C2
:1028100000BFC1F3421501F01F03012606FA03F3BE
:10282000012D02D19689334006E0022D02D1168A8D
:10283000334001E0968A33400C12012606FA04F474
:102840001688344013B10CB1012000E0002070BDA7
:1028500010B50022002340F66A14A14200D100BF47
:102860000A1201249440A3B2DC43048010BD00008E
:10287000003801400044004000480040004C004047
:102880000050004001B502E00098401E0090009802
:102890000028F9D108BD1FB56A4681A1814800F022
:1028A0003DFF1FBD804800F0F7FF002404E07F4893
:1028B000005D7F490855641C052CF8DB4FF0FF30A4
:1028C0007C49086000F028FE00F080FE00F0BDFEAC
:1028D00000F0FBFE00F00DFF77A3764877A10268B9
:1028E000704800F01BFF74A372487AA102687F4809
:1028F00000F014FF00F0E8FB00F0B4FD00F0D7FB9F
:1029000000F021FD012803D179A001F053FA02E083
:102910007BA001F04FFA00F0CCFC00207B4908704E
:1029200040F6C41000F0C9FDB9E062480068401CE0
:10293000082879D2DFE800F00478050D1539545CD9
:1029400072E073A001F036FA4FF0FF305949086089
:102950006AE06FA001F02EFA4FF0FF305549086091
:1029600062E06EA1614800F0D9FE4F4800F0E8FF38
:102970004FF47A7000F005FE4FF47A7000F001FE1B
:1029800000206949087062A001F014FA4648006806
:1029900000F085FF20B9AFF20111434800F0C4FFF9
:1029A0004FF0FF30434908603EE059A001F002FAC1
:1029B00000F08AFB00F0A2FC012211469007FFF70D
:1029C0009AFA01218807FFF787FA00210846FDF7E8
:1029D00079FF01204D490870801E3649086023E0C8
:1029E0004BA001F0E7F94FF0FF30324908601BE0DF
:1029F00047A001F0DFF900F067FB00F05AFC00226D
:102A000001218807FFF777FA00214FF08040FFF798
:102A100063FA01210020FDF755FF00203B490870B3
:102A2000401E2449086000BF00BF3848007890BBB2
:102A30003E4800F0DBFC3E4908700846007858B379
:102A400040282BD13948007800013A4908800846CF
:102A500001880020FDF797FF344840780001354990
:102A60000880084601880020FDF78DFF2F488078F8
:102A7000000130490880084601880020FDF783FFE7
:102A80002A48C07800012B490880084601880020A8
:102A9000FDF779FF02E002E0FFE700BF00BF44E777
:102AA000257323000038014048000020300000203A
:102AB0003A0000202C000020616263002055534141
:102AC00052543120746573742025642025730D0AD7
:102AD0000000000055534152543220746573743223
:102AE0002025642025730D0A0000000000440040EA
:102AF000206E726620737563636573730D0A000040
:102B0000206E7266206661696C0D0A004700002025
:102B1000737563636573730D0A00000073656C65FC
:102B200063745F636172230058000020430000203B
:102B3000280000205A000020704700BFFEE700BFB9
:102B4000FEE700BFFEE700BFFEE770477047704733
:102B500070471FB5CA49684600F011FF78B99DF863
:102B60000A00C84908709DF80B0048709DF80C00D9
:102B700088709DF80D00C8709DF80E000871002443
:102B800003E02020BE490855641C0A2CF9DB1FBD58
:102B900030B59BB040F22551BB48FFF72FFE00280F
:102BA0007BD0B948FFF7AAFDC5B2232D77D100200D
:102BB000B649B74A12788854B5490870B5A1B348E8
:102BC00000F0DDFE18B90120B449086062E0B4A14C
:102BD000AE4800F0D4FE18B90520B049086059E0AD
:102BE000B1A1AA4800F0CBFE18B90320AB49086098
:102BF00050E0AFA1A54800F0C2FE18B90620A749D1
:102C0000086047E0A1490EA800F0C7FE00208DF83B
:102C10004200AAA10EA800F0B2FEC0B902209F494E
:102C200008600A2406E09948015DA4F10A0001AA9F
:102C30001154641C9548005D0028F4D10021A4F1D2
:102C40000A0001AA115401A99F4800F0A6FE9FA105
:102C50000EA800F094FEE8B90420904908600A2408
:102C600006E08A48015DA4F10A0001AA1154641C1F
:102C70008648005D0028F4D10021A4F10A0001AAD1
:102C8000115401A97E4800F088FEAFF23911924834
:102C900000F04AFE00207E49087011E0FFE77C4802
:102CA0000078642809DA79487949097845547848E0
:102CB0000078401C7649087002E0002074490870D2
:102CC0001BB030BD2DE9F041A0B00624002682489B
:102CD00007684FF0000800208049087040F2255135
:102CE0007F48FFF78BFD002841D07D48FFF706FDA8
:102CF000C5B2232D75D100206449654A12788854E5
:102D00006349087077A1614800F039FE00282FD18F
:102D10000120724908706C4A75A1714800F0FEFCF0
:102D200000240CE07548015D6D48FFF7E3FC00BF2F
:102D300040216B48FFF74CFD0028F9D0641C052C9E
:102D4000F0DB21216648FFF7D5FC00BF4021644835
:102D5000FFF73EFD0028F9D023216148FFF7CAFCA8
:102D600000BF40215E48FFF733FD0028F9D060E046
:102D700046490FA800F011FE00208DF8420050A136
:102D80000FA800F0FCFD002853D15448007801281A
:102D90004FD105E03D48015DA01F02AA1154641CFB
:102DA0003A48005D2128F5D12321A01F02AA115421
:102DB0000021601F1154A01F115402A91CA800F08B
:102DC000ECFD641C06E03148015D0DF17A0081558F
:102DD000641C761C2D48005D212801D0052EF2DBF5
:102DE00009E015E002A9384600F0C9FD10B94FF01E
:102DF000010802E03F69002FF4D100BFB8F1000FD5
:102E000017D1354800901CA80FC800F06FFD10E0E6
:102E10001F480078642809DA1C481D490978455480
:102E20001B480078401C1A49087002E0002018492D
:102E3000087020B0BDE8F08110B501218807FFF7C8
:102E400008FBD8B12E480088C0F307102D492E4A40
:102E5000126888542C480068032806D100202A49AB
:102E60000860284800F091FA04E027480068401CF8
:102E70002549086001218807FFF7FCFA10BD000012
:102E8000DA000020350000200038014076000020E4
:102E9000500000206F70656E000000002C000020C4
:102EA000636C6F736500000073656C65637400008C
:102EB0007361795F636C6F73650000007365745FA5
:102EC0006361726E6F3D00006C0000207361795F7A
:102ED0006361726E6F3D00004800002058000020C2
:102EE0000044004073656C6563745F636172000049
:102EF0006361726E6F3D2573210000003A0000206F
:102F00005A0000203F0000205400002000B589B086
:102F100001210846FEF7C7F91C208DF804000120A6
:102F20008DF8050000208DF8060001208DF80700BF
:102F300001A8FDF70EFA0020ADF81A004720ADF801
:102F400018008720ADF81C000020ADF81E008DF899
:102F5000200006A94FF08040FEF756FC6020ADF837
:102F600008000120ADF80A007F20ADF80E00022015
:102F7000ADF81000C001ADF8140002A98005FEF7FD
:102F8000C2FC01218807FFF761FA002201218807AE
:102F9000FEF7B1FF01218807FEF792FF01218807A4
:102FA000FEF79AFF09B000BD00B58BB001210846BD
:102FB000FEF75FF94048FDF723FD40480090404888
:102FC00001900020029001200390002004900590C1
:102FD0004FF4807006908000079020200890000237
:102FE000099000200A9069463348FDF7ABFD0121A6
:102FF0003148FDF7D2FD0BB000BD00B587B001210F
:103000004FF40470FEF742F90120ADF804000020EF
:103010008DF8070001A92B48FDF77CFEFFF7C4FFE0
:10302000FFF774FF002002908DF80C008DF80D0062
:103030004FF4C02004900020059001208DF8180066
:1030400002A91E484C38FDF714FA4FF44040FEF731
:1030500081F8072301220A2118484C38FDF7A1FA0C
:10306000012116484C38FDF73BFA012113484C3832
:10307000FDF72BFA11484C38FDF749FA00BF0F480D
:103080004C38FDF749FA0028F9D10C484C38FDF7C7
:103090004DFA00BF09484C38FDF74DFA0028F9D128
:1030A000012106484C38FDF7D8FA07B000BD10B52D
:1030B000FFF7A3FF10BD0000080002404C240140B0
:1030C0005A0000200010014000B587B001211C20EB
:1030D000FEF7DCF801210803FEF7D8F8E020ADF890
:1030E000040001208DF8060018208DF8070001A9C2
:1030F000D448FDF70FFE4FF44070ADF804000120F6
:103100008DF8060010208DF8070001A9CE48FDF7C4
:1031100001FE4FF48040ADF8040001208DF8060058
:1031200048208DF8070001A9C848FDF7F3FD4FF4CA
:103130000071C548FDF79BFE0020ADF808004FF474
:103140008270ADF80A000020ADF80C00ADF80E005A
:10315000ADF810004FF40070ADF812001020ADF87B
:1031600014000020ADF816000720ADF8180002A9E1
:10317000B748FEF715F90121B548FEF7B6F907B0D3
:1031800000BD10B5044600BF0221B148FEF731FA78
:103190000028F9D02146AE48FEF7D8F900BF01213A
:1031A000AB48FEF726FA0028F9D0A948FEF7D0F977
:1031B000C0B210BD70B505460C464FF48071A248F0
:1031C000FDF757FE4FF400719F48FDF752FE284669
:1031D000FFF7D7FF06462046FFF7D3FF4FF40071F5
:1031E0009948FDF744FE304670BD70B504464FF473
:1031F00080719548FDF73DFE4FF400719248FDF750
:1032000038FE2046FFF7BDFFFF20FFF7BAFF054657
:103210004FF400718C48FDF72AFE284670BD2DE959
:10322000F04107460D4616464FF480718648FDF77B
:1032300020FE4FF400718448FDF71BFE3846FFF76F
:10324000A0FF8046002405E0FF20FFF79AFF2855E5
:10325000601CC4B2B442F7DB4FF400717A48FDF74A
:1032600006FE4046BDE8F0812DE9F04107460C46D8
:1032700015464FF480717448FDF7FBFD4FF4007163
:103280007148FDF7F6FD3846FFF77BFF80460026C4
:1032900005E014F8010BFFF774FF701CC6B2AE42D4
:1032A000F7DB4FF400716848FDF7E1FD4046BDE8EB
:1032B000F08110B54FF480716348FDF7DAFD052207
:1032C00064492A20FFF7D0FF01212220FFF772FF77
:1032D00028212520FFF76EFF04213120FFF76AFF28
:1032E0000F212620FFF766FF0F212020FFF762FF46
:1032F0004FF480715448FDF7BAFD10BD10B54FF47E
:1033000080715148FDF7B5FD052253493020FFF784
:10331000ABFF01212220FFF74DFF28212520FFF7D9
:1033200049FF0F212620FFF745FF0E212020FFF740
:1033300041FF4FF480714448FDF799FD4FF6FF704F
:10334000FFF7A0FA10BD1FB544A103C9CDE90201E2
:10335000052202A93020FFF787FF052269461020C9
:10336000FFF75DFF002406E01DF804005B2800D095
:1033700003E0601CC4B2052CF6DB00BF052C02D1B3
:10338000012004B010BD0020FBE770B505464FF4E6
:1033900080712D48FDF76DFD04222946A020FFF71E
:1033A00063FF4FF480712848FDF761FD00BF4FF4C3
:1033B00080412648FDF741FD0028F8D10720FFF79E
:1033C00014FF044621462720FFF7F4FEFF21E120E9
:1033D000FFF7F0FE04F0100008B1102070BD04F0FB
:1033E000200008B12020F9E70020F7E770B5054676
:1033F0004FF480711448FDF73AFD4FF480411348B3
:10340000FDF71BFDE0B94FF480710F48FDF731FD6A
:103410000720FFF7EAFE044621462720FFF7CAFEF1
:1034200004F0400050B1042229466120FFF7F7FE66
:10343000FF21E220FFF7BEFE402070BD0020FCE728
:103440000020FAE700080140000C01400010014094
:10345000003001403A000020350000205B5B5B5BE0
:103460005B00000000B585B001214807FDF71BFF98
:103470001020ADF8100000208DF8130003208DF807
:10348000120004A92148FDF745FC10211F48FDF753
:10349000EEFC00200090019002900220039069460B
:1034A0000020FDF7F2F901210020FDF70BFA0021C1
:1034B0000846FDF768FA05B000BD2DE9F04704465F
:1034C000204600F052FB81461149484600F0A0FA20
:1034D00081464FF08B41484600F068FA824600F082
:1034E0005DFB07464FF066320A4B00F0CFFA054607
:1034F00000F067FB8146484600F03CFB85B2294658
:103500000020FDF740FABDE8F08700000008014008
:1035100000007A4466660A4010B56FF00400FCF7BC
:1035200062FF264800682649B0FBF1F02549087083
:103530000846007800EB4001C1EBC0104FF6FF7168
:1035400001EAC0002049088010BD01461D4A1278DA
:103550004A434FF0E0235A6100229A6101221A6126
:1035600000BF4FF0E022106900F001021AB100F430
:103570008032002AF5D000224FF0E0231A619A61D0
:1035800070470146104A12884A434FF0E0235A61BF
:1035900000229A6101221A6100BF4FF0E0221069F7
:1035A00000F001021AB100F48032002AF5D00022A6
:1035B0004FF0E0231A619A6170470000000000207C
:1035C00000127A005C0000205E00002000B585B08B
:1035D000012144F20400FDF759FE4FF40070ADF8EC
:1035E000100018208DF8130003208DF8120004A994
:1035F000A548FDF78FFB4FF48060ADF81000042064
:103600008DF8130004A9A048FDF784FB4FF4E130C6
:1036100000900020ADF80400ADF80600ADF80800F9
:10362000ADF80C000C20ADF80A0069469748FEF78B
:1036300068FF012240F225519448FEF7FAFF01216C
:103640009248FEF7EAFF05B000BD00B585B0012144
:103650004804FDF728FE01210420FDF717FE042091
:10366000ADF8100018208DF8130003208DF812001B
:1036700004A98548FDF74EFB0820ADF81000042092
:103680008DF8130004A98048FDF744FB4FF4E130A6
:1036900000900020ADF80400ADF80600ADF8080079
:1036A000ADF80C000C20ADF80A0069467848FEF72A
:1036B00028FF012240F225517548FEF7BAFF01218B
:1036C0007348FEF7AAFF05B000BD08B54FF4C0600F
:1036D000FCF73AFE25208DF8000000208DF801004F
:1036E00001208DF802008DF803006846FCF731FEDA
:1036F00008BD08B54FF4C060FCF726FE26208DF803
:10370000000000208DF8010002208DF80200012049
:103710008DF803006846FCF71CFE08BD0FB470B5B9
:1037200086B006460CA8019087E00B9800785C28CC
:103730001CD10B98401C0B9000786E2809D0722881
:103740000FD10D213046FEF7D5FF0B98401C0B9092
:103750000BE00A213046FEF7CDFF0B98401C0B9082
:1037600003E00B98401C0B9000BF5FE00B980078C3
:10377000252854D10B98401C0B900078632837D033
:10378000642818D0732845D1019810C801900BE027
:1037900021783046FEF7AEFF00BF40213046FFF7EC
:1037A00017F80028F9D0641C20780028F0D10B9875
:1037B000401C0B9032E0019820C801902A4635A1A8
:1037C00002A800F007FB02AC0BE021783046FEF7C0
:1037D00091FF00BF40213046FEF7FAFF0028F9D0E4
:1037E000641C20780028F0D10B98401C0B9015E049
:1037F00002AC0BE021783046FEF77CFF00BF402191
:103800003046FEF7E5FF0028F9D0641C2078002838
:10381000F0D100BF0B98401C0B9000BF06E00B9846
:1038200010F8011B0B903046FEF764FF00BF4021EB
:103830003046FEF7CDFF0028F9D00B98007800281D
:103840007FF473AF06B070BC5DF814FB70B504462E
:103850000D46E1B20D48FEF74DFF00BF40210B4879
:10386000FEF7B6FF0028F9D0204670BD10B504461B
:1038700000BF20210548FEF7ABFF0028F9D0034820
:10388000FEF73CFF10BD0000000801400038014079
:10389000004400402564000000210160704701469B
:1038A000086808B9012070470020FCE770B506469B
:1038B000142000F08BFB05460DB9012400E0002424
:1038C000284600F05BFB204670BD014600200A68D8
:1038D00001E0401C1269002AFBD170471FB5069C0D
:1038E0000F226946204600F038F81FBD7FB582B030
:1038F0000A9E3568142000F069FB044614B90020C4
:1039000006B070BD009402A80FC8FFF7E7FF0020C3
:1039100020610DB9346005E000E02D6928690028B8
:10392000FBD12C610120EBE770B505460E462C68F3
:1039300003E094E80F00B0472469002CF9D170BD72
:1039400070B5044605E020680569206800F016FBA4
:10395000256020680028F6D170BD40EA01039B076E
:1039600003D009E008C9121F08C0042AFAD203E0F4
:1039700011F8013B00F8013B521EF9D2704710B517
:10398000002200E0521C835C8C5CA34201D1002B1E
:10399000F8D1D8B2E1B2401A10BD034611F8012B9C
:1039A00000F8012B002AF9D11846704780EA01027D
:1039B00010B502F00043400022D04A001FD0010E93
:1039C00001EB1261C0F35600C2F3560240F400004E
:1039D00042F40002A0FB022000047F39140400D04E
:1039E000401C50EA124001D44000491EC2B20C06ED
:1039F00004EBD010401C4008802A02D003E00020D5
:103A000010BD20F00100002900DA0020184310BD8D
:103A100030B480EA010202F0004530F0004221F0AB
:103A2000004013D090B1C30DD40DC2F31601C0F302
:103A30001600E41A41F4000140F400027D34914282
:103A400001D3641C00E04900002C02DA30BC0020E5
:103A500070474FF400000023914201D3891A0343B9
:103A600040084FEA4101F7D151B1914202D14FF0E4
:103A7000004105E002D24FF0010101E06FF00101C9
:103A800003EBC450284430BC00F0CDB82DE9F04D14
:103A900081EA030404F0004B21F0004514464FF086
:103AA000000A23F0004150EA050220D054EA010246
:103AB0001DD0C5F30A570246C5F31303C1F3130023
:103AC000C1F30A5640F4801543F48013A7EB0608AF
:103AD000101BD64608F2FD3873EB050002D308F13F
:103AE000010801E092185B41B8F1000F03DA0020F1
:103AF0000146BDE8F08D00204FF480110646844653
:103B00000EE0171B73EB050705D3121B63EB0503D0
:103B100006434CEA010C49084FEA300092185B4119
:103B200050EA0107EDD152EA030012D082EA040004
:103B300083EA0501084305D0101BAB4106D20122E0
:103B4000002306E000224FF0004302E06FF0010284
:103B500053101AEB06004CEB085110EB0A0041EB36
:103B60000B01BDE8F04D00F095B8962300221146F8
:103B700000F062B820F00040C10DC0F3160040F420
:103B800000007F2901DA00207047962903DCC1F18B
:103B90009601C840704796398840704700F000424F
:103BA00030F000400AD0C10D01F56071C0F316007D
:103BB00042EA0151C2084007114370470020014604
:103BC000704701F0004330B421F0004150EA010297
:103BD00006D00A0DA2F56072C1F31301002A02DCBF
:103BE00030BC00207047440F44EAC104C100E01813
:103BF00030BC00EBC25000F016B830B50B460146A1
:103C000000202022012409E021FA02F59D4205D37B
:103C100003FA02F5491B04FA02F52844151EA2F125
:103C20000102F1DC30BD0029A8BF7047401C4900EB
:103C300008BF20F00100704710B4B0FA80FC00FA11
:103C40000CF050EA010404BF10BC704749B1CCF13C
:103C5000200421FA04F411FA0CF118BF01212143C8
:103C60000843A3EB0C01CB1D4FEA00614FEA102083
:103C700042BF002010BC704700EBC3501044002925
:103C8000A4BF10BC7047401C490008BF20F00100D1
:103C900010BC704710B5141E73F1000408DA401C04
:103CA00041F1000192185B411A4301D120F001005B
:103CB00010BD2DE9F04D92469B4611B1B1FA81F24B
:103CC00002E0B0FA80F22032904600F053F8044649
:103CD0000F4640EA0A0041EA0B0153465A460843A0
:103CE00013D0114653EA010019D0C8F140025046E2
:103CF00000F04FF805460E4650465946424600F041
:103D000039F8084305D0012004E020463946BDE8D3
:103D1000F08D0020054346EAE0762C4337430A98AD
:103D20006305E40AA0EB08000022FD0A44EA4754B8
:103D30000A3002D500200146E9E701051019694162
:103D4000DDE9084500196941BDE8F04DA2E7000032
:103D5000064C074D06E0E06840F0010394E80700D8
:103D600098471034AC42F6D3FCF7E6F93840000827
:103D700058400008202A04DB203A00FA02F1002013
:103D800070479140C2F1200320FA03F31943904099
:103D90007047202A04DB203A21FA02F00021704704
:103DA00021FA02F3D040C2F12002914008431946A3
:103DB000704700000FB4054B10B503A9044A0298E0
:103DC00000F02CF810BC5DF814FB00004D38000822
:103DD000600000200FB4084B10B504A902AA039894
:103DE00000F01CF8044602A9002000F0C1F82046AB
:103DF00010BC5DF814FB0000713F000802E008C829
:103E0000121F08C1002AFAD170477047002001E054
:103E100001C1121F002AFBD1704700002DE9FF4F9E
:103E200089B09B460446002506E025280BD05A465B
:103E30000B999047641C6D1C20780028F5D10DB0BB
:103E40002846BDE8F08F0027B8460122474900E028
:103E5000074314F8013F203B02FA03F00842F7D170
:103E600020782E2819D114F8010F47F004072A28CA
:103E70000ED06FF02F022078A0F1300109290CD864
:103E800008EB880102EB410100EB0108641CF2E73A
:103E90000A98641C50F8048B0A9020780028CED031
:103EA000642808D0692806D075281ED05A460B9978
:103EB00090476D1C58E00A994FF00A0901C90A9110
:103EC000002802DA40422D2102E0390504D52B21D9
:103ED0008DF82010012103E0F90704D02021F7E735
:103EE0008A4608AE0DE00021FAE70A994FF00A0968
:103EF00001C90A91F7E74946FFF77FFE303106F81E
:103F0000011D0028F7D1ADEB060000F1200978076C
:103F100001D44FF00108C84502DDA8EB090000E01C
:103F200000208046002706E008A85A46C05D0B998D
:103F300090476D1C7F1C5745F6DB04E030205A4645
:103F40000B9990476D1CB8F10001A8F10108F5DC50
:103F500005E016F8010B5A460B9990476D1CB9F114
:103F60000001A9F10109F4DC641C65E709280100DE
:103F70000A68531C0B6010707047000010B50028D1
:103F800021D0114B0022001F196803E0814203D8A1
:103F90000A4649680029F9D152B11368841A9C4233
:103FA00004D1006818441060104602E0506000E040
:103FB000186039B102680B1A934203D10B681A4496
:103FC00002604968416010BD64000020F0B50B300C
:103FD000154D20F007010024144A0FE003688B42BE
:103FE0000BD38B4205D95E1A43184768C3E90067B3
:103FF00000E04368136002C004E0021D106800285E
:10400000ECD12046002802D1286808B10020F0BD7C
:10401000064A07481060074A121A22F00702C0E950
:10402000002401202860D7E76800002064000020F9
:10403000EC000020E80200205840000800000020AA
:104040006C000000FC3D0008C44000086C0000202B
:104050007C0600000C3E000800A24A04000000009C
:104060000000000001020304060708090000000028
:1040700001020304010203040607080902040608FA
:104080000000000000000000344310100200000097
:104090000000000000000000000000000000000020
:1040A0000000000000000000000000000000000010
:1040B0000000000000000000000000000000000000
:0440C00000000000FC
:0400000508000131BD
:00000001FF
